:0400000007EF00F016
:10000800278267ED02F0EEEF02F00F0EC16E9392B9
:10001800938493969398939A000E946E000E926E22
:10002800C00E806E939C818C829482968298829A6C
:100038008196819A819882928290000E0E6E000EAF
:100048000D6E819481920BEC03F0F19CF288F29290
:10005800F28CF28E81B433EF00F035EF00F02EEF22
:1000680000F0F29881A43BEF00F03DEF00F036EF8E
:1000780000F0000ED76E000ED66E81B446EF00F089
:1000880048EF00F041EF00F00D4A0E2AD8900D34E9
:10009800D96E0E34DA6E000ED926010EDA22D6CFCA
:1000A800DEFFD7CFDDFF890E0101025D130E035974
:1000B800D8A061EF00F063EF00F070EF00F0E00E01
:1000C800025D2E0E0359D8B06CEF00F06EEF00F011
:1000D80070EF00F075EF00F0000E0E6E000E0D6E62
:1000E800F2880EBE81EF00F00E5009E1210E0D5C82
:1000F800D8A081EF00F083EF00F02EEF00F0F29E21
:10010800000E1D6E320E1C6E96EC02F0000E106E84
:10011800000E0F6E000E0C6E1A0E0B6ED8900B347C
:10012800D96E0C34DA6E000ED926010EDA22E90EE9
:10013800DE5C030EDE58D8A0A4EF00F0A6EF00F0B6
:10014800BFEF00F0D8900B34D96E0C34DA6E000E85
:10015800D926010EDA22D00EDE5C070EDE58D8B0A2
:10016800B8EF00F0BAEF00F0BFEF00F0D8900F360C
:100178001036EBEF00F0D8900B34D96E0C34DA6EF1
:10018800000ED926010EDA22AD0EDE5C0D0EDE5809
:10019800D8A0D1EF00F0D3EF00F0EBEF00F0D8904B
:1001A8000B34D96E0C34DA6E000ED926010EDA2221
:1001B800940EDE5C110EDE58D8B0E5EF00F0E7EFE4
:1001C80000F0EBEF00F00F80D8900F3610360B4A96
:1001D8000C2A0CBEF9EF00F00C5009E1220E0B5C62
:1001E800D8A0F9EF00F0FBEF00F092EF00F0103428
:1001F80010320F32AF0E0F181010D8A406EF01F00E
:1002080008EF01F02FEF01F082B40DEF01F010EFCD
:1002180001F0010E11EF01F0000EFF0A236E2346D4
:10022800234682502318FB0B2318826E81B61FEFDA
:1002380001F022EF01F0010E23EF01F0000EFF0A9A
:10024800236E23462346234681502318F70B231891
:10025800816EFDEF01F0270E0F181010D8A437EFAC
:1002680001F039EF01F05FEF01F082B63EEF01F0E7
:1002780041EF01F0010E42EF01F0000EFF0A236E7C
:1002880023462346234682502318F70B2318826EF1
:1002980081B851EF01F054EF01F0010E55EF01F074
:1002A800000EFF0A236E233A81502318EF0B231800
:1002B800816EFDEF01F0070E0F181010D8A467EF3C
:1002C80001F069EF01F08EEF01F082B86EEF01F0F6
:1002D80071EF01F0010E72EF01F0000EFF0A236EBC
:1002E800233A82502318EF0B2318826E81BA7FEFCE
:1002F80001F082EF01F0010E83EF01F0000EFF0A1A
:10030800236E233A234681502318DF0B2318816E6E
:10031800FDEF01F0CF0E0F181010D8A496EF01F0E2
:1003280098EF01F0BDEF01F082BA9DEF01F0A0EF68
:1003380001F0010EA1EF01F0000EFF0A236E233A2F
:10034800234682502318DF0B2318826E82B2AFEF48
:1003580001F0B2EF01F0010EB3EF01F0000EFF0A59
:10036800236E234682502318FD0B2318826EFDEF5F
:1003780001F05F0E0F181010D8A4C5EF01F0C7EFF9
:1003880001F0DDEF01F0254A262A26BED5EF01F05F
:10039800265009E1060E255CD8A0D5EF01F0D7EF6D
:1003A80001F0FDEF01F0000E266E050E256EFDEF43
:1003B80001F09F0E0F181010D8A4E5EF01F0E7EF39
:1003C80001F0FDEF01F02506D8A0260626BEF7EFBE
:1003D80001F0265006E12504D8B0F5EF01F0F7EF5B
:1003E80001F0FDEF01F0000E266E000E256EFDEF08
:1003F80001F0050E25182610D8A405EF02F007EF26
:1004080002F00DEF02F0C00E806E818C82905EEFDC
:1004180002F0040E25182610D8A415EF02F017EFE5
:1004280002F01DEF02F0FC0E806E818C82805EEF80
:1004380002F0030E25182610D8A425EF02F027EFA6
:1004480002F02DEF02F0E40E806E819C82805EEF58
:1004580002F0020E25182610D8A435EF02F037EF67
:1004680002F03DEF02F0F00E806E819C82805EEF1C
:1004780002F025042610D8A444EF02F046EF02F05B
:100488004CEF02F0D90E806E819C82805EEF02F004
:1004980025502610D8A453EF02F055EF02F05BEF79
:1004A80002F0D20E806E819C82805EEF02F0818C19
:1004B80080688290000E0E6E000E0D6EF2882DEF91
:1004C80000F007EF00F00600F2A26DEF02F06FEF08
:1004D80002F08CEF02F025C013F026C014F0C2EC35
:1004E80002F08182000E1B6E000E1A6E1A4A1B2A39
:1004F8001BBE88EF02F01B5009E1640E1A5CD8A0FD
:1005080088EF02F08AEF02F07AEF02F08192F2921D
:10051800F2A491EF02F093EF02F094EF02F0F2945C
:1005280027921100000E206E000E1F6EB2EF02F02F
:10053800000E226E000E216E214A222A22BEAEEF44
:1005480002F0200E215C030E2258D8A0AEEF02F074
:10055800B0EF02F0A0EF02F01F4A202A1C501F5CE7
:100568002050800A1E6E1D50800A1E58D8A0BFEF6A
:1005780002F0C1EF02F09CEF02F01200000E176EBD
:10058800000E166EDEEF02F0000E196E000E186EE9
:10059800184A192A19BEDAEF02F0200E185C030E69
:1005A8001958D8A0DAEF02F0DCEF02F0CCEF02F035
:1005B800164A172A1350165C1750800A156E1450E5
:1005C800800A1558D8A0EBEF02F0EDEF02F0C8EF63
:1005D80002F012002C0EF66E060EF76E000EF86E84
:1005E8000900F5CF25F00900F5CF26F001EE00F05F
:1005F800C80EEE6AE806FDE100EE01F0120EEE6AA2
:10060800E806FDE127902792000109EF00F0D59058
:10061800D592D594D596D59AD59CF28AF28CF28E3D
:06062800D58E1200050052
:020000040020DA
:08000000FFFFFFFFFFFFFFFF00
:020000040030CA
:0E000000FF021A1EFF8381FF0FC00FE00F40AA
:00000001FF
